:02000000FE2FD1
:100EBC00703083168F00203085009F01073083121D
:100ECC0099009A01051605158514051481276F27BD
:100EDC006C2F8312851E752F83120516772F8312A4
:100EEC0005120330F1009730F000F00B7B2FF10B63
:100EFC007B2F802F08008312851908000330F10026
:100F0C009730F000F00B882FF10B882F8D2F831268
:100F1C0085190800F201F3017308803AFF00803054
:100F2C007F02031D9B2F4D3072020318DE2F7308B6
:100F3C00803AFF0080307F02031DA62F2C307202F6
:100F4C008312031C85107308803AFF0080307F02E7
:100F5C00031DB22F213072028312031C0510831261
:100F6C0005125730F1009330F000F00BBB2FF10B52
:100F7C00BB2FC02F83128514051405165730F100B2
:100F8C009330F000F00BC82FF10BC82FCD2F013090
:100F9C00F2070318F30A0030F3077308803AFF00D6
:100FAC0080307F02031DDC2F4D307202031C9D2FFD
:100FBC00AE30F1002830F000F00BE22FF10BE22FF5
:100FCC00000083120511AE30F1002830F000F00B58
:100FDC00ED2FF10BED2F000083120515AE30F10053
:100FEC002830F000F00BF82FF10BF82F0000080060
:040FFC0083015E2FE0
:02400E00C4FFED
:00000001FF
