:02000000F12EDF
:100DE2008301F32E703083168F00203085009F011F
:100DF2000730831299009A0105160515851405140A
:100E0200022F21270727022F022F00288312851A7B
:100E12000B2F0C2F202F05122C30F1004930F0003F
:100E2200F00B112FF10B112F831205162C30F1004C
:100E32004930F000F00B1B2FF10B1B2F202F080065
:100E420083128519252F262FFF2F2C30F1004930D0
:100E5200F000F00B2A2FF10B2A2F83128519322F63
:100E6200332FFF2FF201F3017308803AFF00803025
:100E72007F02031D3E2F2C307202031C412F422F92
:100E8200442F6C2F6C2F831285102C30F1004930C7
:100E9200F000F00B4A2FF10B4A2F831285142C30ED
:100EA200F1004930F000F00B542FF10B542F0130B8
:100EB200F2070318F30A0030F3077308803AFF00C1
:100EC20080307F02031D672F2C307202031C6A2FB1
:100ED2006B2F442F6C2FF401F5017508803AFF0047
:100EE20080307F02031D772F21307402031C7A2F7A
:100EF2007B2F7D2FA52FA52F831205102C30F100FB
:100F02004930F000F00B832FF10B832F831205146D
:100F12002C30F1004930F000F00B8D2FF10B8D2FAA
:100F22000130F4070318F50A0030F5077508803A16
:100F3200FF0080307F02031DA02F21307402031CAA
:100F4200A32FA42F7D2FA52FF601F7017708803A52
:100F5200FF0080307F02031DB02F4D307602031C4C
:100F6200B32FB42FB62FDE2FDE2F831205122C30B3
:100F7200F1004930F000F00BBC2FF10BBC2F8312B3
:100F820005162C30F1004930F000F00BC62FF10BA2
:100F9200C62F0130F6070318F70A0030F707770863
:100FA200803AFF0080307F02031DD92F4D30760238
:100FB200031CDC2FDD2FB62FDE2F5730F1009330CC
:100FC200F000F00BE22FF10BE22FE72F8312051155
:100FD2005730F1009330F000F00BED2FF10BED2FB5
:100FE200F22F831205155730F1009330F000F00B09
:0E0FF200F82FF10BF82FFD2FFF2FFF2F080017
:02400E00C4FFED
:00000001FF
